:020000040800F2
:1000000000C00120753D0008093C00080F3C0008B5
:10001000153C00081B3C0008213C000800000000C3
:10002000000000000000000000000000273C000865
:10003000353C000800000000433C0008513C00082B
:10004000C53D0008C53D0008C53D00085D3C0008F1
:10005000C53D0008C53D0008C53D0008C53D000878
:10006000C53D0008C53D0008C53D0008C53D000868
:10007000C53D0008C53D0008C53D0008C53D000858
:10008000C53D0008C53D0008C53D0008C53D000848
:10009000C53D0008C53D0008C53D0008C53D000838
:1000A000713C0008853C0008993C0008AD3C000804
:1000B000C53D0008C53D0008C53D0008C53D000818
:1000C000C53D0008C53D0008C53D0008C53D000808
:1000D000C53D0008C53D0008C13C0008C53D0008FD
:1000E000D53C0008C53D0008C53D0008C53D0008D9
:1000F000C53D0008C53D0008C53D0008C53D0008D8
:10010000C53D0008C53D0008C53D0008C53D0008C7
:10011000C53D0008C53D0008C53D0008C53D0008B7
:10012000C53D0008C53D0008C53D0008C53D0008A7
:10013000C53D0008C53D0008C53D0008C53D000897
:10014000C53D0008C53D0008C53D0008C53D000887
:10015000C53D0008C53D0008C53D0008C53D000877
:10016000C53D0008C53D0008C53D0008C53D000867
:10017000C53D0008C53D0008C53D00080000000061
:08018000C53D0008C53D000863
:1001900010B5054C237833B9044B13B10448AFF3C1
:1001A00000800123237010BD440A002000000000DD
:1001B000F0D9000808B5034B1BB103490348AFF35E
:1001C000008008BD00000000480A0020F0D90008A7
:1001D000034613F8012B002AFBD1181A0138704787
:1001E00001F0FF01102A2BDB10F0070F08D010F8E8
:1001F000013B013A8B422DD010F0070F42B3F6D1EC
:10020000F0B441EA012141EA014122F007047FF004
:1002100000070023F0E80256083C85EA010586EA5B
:10022000010685FA47F5A3FA87F586FA47F6A5FA97
:1002300087F68EB9EED1F0BC01F0FF0102F00702A3
:1002400032B110F8013B013A83EA010313B1F8D14E
:100250000020704701387047002D06BF354603382F
:10026000073815F0010F07D1013015F4807F02BF68
:10027000013015F4C03F0130F0BC0138704700BFB9
:1002800081F0004102E000BF83F0004330B54FEA47
:1002900041044FEA430594EA050F08BF90EA020FB4
:1002A0001FBF54EA000C55EA020C7FEA645C7FEA47
:1002B000655C00F0E2804FEA5454D4EB5555B8BF6A
:1002C0006D420CDD2C4480EA020281EA030382EADB
:1002D000000083EA010180EA020281EA0303362D6D
:1002E00088BF30BD11F0004F4FEA01314FF4801C40
:1002F0004CEA113102D0404261EB410113F0004F52
:100300004FEA03334CEA133302D0524263EB430308
:1003100094EA050F00F0A780A4F10104D5F1200EA6
:100320000DDB02FA0EFC22FA05F2801841F1000101
:1003300003FA0EF2801843FA05F359410EE0A5F1D5
:1003400020050EF1200E012A03FA0EFC28BF4CF006
:10035000020C43FA05F3C01851EBE37101F00045BC
:1003600007D54FF0000EDCF1000C7EEB00006EEBC9
:100370000101B1F5801F1BD3B1F5001F0CD3490853
:100380005FEA30004FEA3C0C04F101044FEA4452AA
:1003900012F5800F80F09A80BCF1004F08BF5FEA31
:1003A000500C50F1000041EB045141EA050130BD11
:1003B0005FEA4C0C404141EB0101013C28BFB1F523
:1003C000801FE9D291F0000F04BF01460020B1FA6E
:1003D00081F308BF2033A3F10B03B3F120020CDA41
:1003E0000C3208DD02F1140CC2F10C0201FA0CF01F
:1003F00021FA02F10CE002F11402D8BFC2F1200C84
:1004000001FA02F120FA0CFCDCBF41EA0C01904039
:10041000E41AA2BF01EB0451294330BD6FEA040482
:100420001F3C1CDA0C340EDC04F11404C4F120026D
:1004300020FA04F001FA02F340EA030021FA04F37F
:1004400045EA030130BDC4F10C04C4F1200220FAD6
:1004500002F001FA04F340EA0300294630BD21FA14
:1004600004F0294630BD94F0000F83F4801306BFDA
:1004700081F480110134013D4EE77FEA645C18BFCE
:100480007FEA655C29D094EA050F08BF90EA020F65
:1004900005D054EA000C04BF1946104630BD91EA5D
:1004A000030F1EBF0021002030BD5FEA545C05D160
:1004B0004000494128BF41F0004130BD14F580049F
:1004C0003CBF01F5801130BD01F0004545F0FE4113
:1004D00041F470014FF0000030BD7FEA645C1ABF48
:1004E000194610467FEA655C1CBF0B46024650EA7F
:1004F000013406BF52EA033591EA030F41F40021AB
:1005000030BD00BF90F0000F04BF0021704730B530
:100510004FF4806404F132044FF000054FF0000105
:1005200050E700BF90F0000F04BF0021704730B5C6
:100530004FF4806404F1320410F0004548BF40429B
:100540004FF000013EE700BF42004FEAE2014FEAF0
:1005500031014FEA02701FBF12F07F4393F07F4FCB
:1005600081F06051704732F07F4208BF704793F0CE
:100570007F4F04BF41F40021704730B54FF46074E1
:1005800001F0004521F000411CE700BF50EA0102E4
:1005900008BF704730B54FF000050AE050EA01028D
:1005A00008BF704730B511F0004502D5404261EBFD
:1005B00041014FF4806404F132045FEA915C3FF43E
:1005C000D8AE4FF003025FEADC0C18BF03325FEADB
:1005D000DC0C18BF033202EBDC02C2F1200300FA8C
:1005E00003FC20FA02F001FA03FE40EA0E0021FAB1
:1005F00002F11444BDE600BF70B54FF0FF0C4CF49F
:10060000E06C1CEA11541DBF1CEA135594EA0C0F50
:1006100095EA0C0F00F0DEF82C4481EA030621EA8B
:100620004C5123EA4C5350EA013518BF52EA0335C6
:1006300041F4801143F4801338D0A0FB02CE4FF078
:100640000005E1FB02E506F00042E0FB03E54FF0A8
:100650000006E1FB03569CF0000F18BF4EF0010EA0
:10066000A4F1FF04B6F5007F64F5407404D25FEA9C
:100670004E0E6D4146EB060642EAC62141EA55514F
:100680004FEAC52040EA5E504FEACE2EB4F1FD0C91
:1006900088BFBCF5E06F1ED8BEF1004F08BF5FEA0F
:1006A000500E50F1000041EB045170BD06F00046C1
:1006B00046EA010140EA020081EA0301B4EB5C046E
:1006C000C2BFD4EB0C0541EA045170BD41F4801166
:1006D0004FF0000E013C00F3AB8014F1360FDEBF8B
:1006E000002001F0004170BDC4F10004203C35DA67
:1006F0000C341BDC04F11404C4F1200500FA05F3EA
:1007000020FA04F001FA05F240EA020001F000428A
:1007100021F0004110EBD37021FA04F642EB060100
:100720005EEA430E08BF20EAD37070BDC4F10C042A
:10073000C4F1200500FA04F320FA05F001FA04F2EE
:1007400040EA020001F0004110EBD37041F10001DA
:100750005EEA430E08BF20EAD37070BDC4F12005E5
:1007600000FA05F24EEA020E20FA04F301FA05F24D
:1007700043EA020321FA04F001F0004121FA04F2F5
:1007800020EA020000EBD3705EEA430E08BF20EAC5
:10079000D37070BD94F0000F0FD101F000464000FF
:1007A00041EB010111F4801F08BF013CF7D041EA81
:1007B000060195F0000F18BF704703F00046520085
:1007C00043EB030313F4801F08BF013DF7D043EA56
:1007D0000603704794EA0C0F0CEA135518BF95EA0C
:1007E0000C0F0CD050EA410618BF52EA4306D1D193
:1007F00081EA030101F000414FF0000070BD50EAB2
:10080000410606BF1046194652EA430619D094EA3B
:100810000C0F02D150EA013613D195EA0C0F05D125
:1008200052EA03361CBF104619460AD181EA030179
:1008300001F0004141F0FE4141F470014FF0000031
:1008400070BD41F0FE4141F4780170BD70B54FF0CC
:10085000FF0C4CF4E06C1CEA11541DBF1CEA13554C
:1008600094EA0C0F95EA0C0F00F0A7F8A4EB05042E
:1008700081EA030E52EA03354FEA013100F0888025
:100880004FEA03334FF0805545EA131343EA1263EE
:100890004FEA022245EA111545EA10654FEA0026A3
:1008A0000EF000419D4208BF964244F1FD0404F55C
:1008B000407402D25B084FEA3202B61A65EB0305B8
:1008C0005B084FEA32024FF480104FF4002CB6EB75
:1008D000020E75EB030E22BFB61A754640EA0C00F5
:1008E0005B084FEA3202B6EB020E75EB030E22BF35
:1008F000B61A754640EA5C005B084FEA3202B6EB76
:10090000020E75EB030E22BFB61A754640EA9C0034
:100910005B084FEA3202B6EB020E75EB030E22BF04
:10092000B61A754640EADC0055EA060E18D04FEAC2
:10093000051545EA16754FEA06164FEAC30343EA62
:1009400052734FEAC2025FEA1C1CC0D111F4801F2F
:100950000BD141EA00014FF000004FF0004CB6E728
:1009600011F4801F04BF01430020B4F1FD0C88BFC7
:10097000BCF5E06F3FF6AFAEB5EB030C04BFB6EBD2
:10098000020C5FEA500C50F1000041EB045170BDC5
:100990000EF0004E4EEA113114EB5C04C2BFD4EBF2
:1009A0000C0541EA045170BD41F480114FF0000E76
:1009B000013C90E645EA060E8DE60CEA135594EAF2
:1009C0000C0F08BF95EA0C0F3FF43BAF94EA0C0FF5
:1009D0000AD150EA01347FF434AF95EA0C0F7FF46A
:1009E00025AF104619462CE795EA0C0F06D152EABE
:1009F00003353FF4FDAE1046194622E750EA4106A2
:100A000018BF52EA43067FF4C5AE50EA41047FF4B2
:100A10000DAF52EA43057FF4EBAE12E74FF0FF3C17
:100A200006E000BF4FF0010C02E000BF4FF0010CE8
:100A30004DF804CD4FEA410C7FEA6C5C4FEA430C61
:100A400018BF7FEA6C5C1BD001B050EA410C0CBFB0
:100A500052EA430C91EA030F02BF90EA020F002012
:100A6000704710F1000F91EA030F58BF994208BF79
:100A700090422CBFD8176FEAE37040F00100704736
:100A80004FEA410C7FEA6C5C02D150EA013C07D18D
:100A90004FEA430C7FEA6C5CD6D152EA033CD3D0D8
:100AA0005DF8040B704700BF8446104662468C46D2
:100AB0001946634600E000BF01B5FFF7B7FF002805
:100AC00048BF10F1000F01BD4DF808EDFFF7F4FF2E
:100AD0000CBF012000205DF808FB00BF4DF808EDB9
:100AE000FFF7EAFF34BF012000205DF808FB00BFDC
:100AF0004DF808EDFFF7E0FF94BF012000205DF8FE
:100B000008FB00BF4DF808EDFFF7CEFF94BF0120B2
:100B100000205DF808FB00BF4DF808EDFFF7C4FFAB
:100B200034BF012000205DF808FB00BF4FEA410CF4
:100B30007FEA6C5C02D150EA013C0AD14FEA430CD7
:100B40007FEA6C5C02D152EA033C02D14FF0000014
:100B500070474FF0010070474FEA410212F5001252
:100B600015D211D56FF47873B3EB625212D94FEAF4
:100B7000C12343F0004343EA505311F0004F23FADE
:100B800002F018BF404270474FF00000704750EA33
:100B9000013005D111F0004008BF6FF000407047F0
:100BA0004FF00000704700BF53B94AB9002908BF91
:100BB00000281CBF4FF0FF314FF0FF3000F074B938
:100BC000ADF1080C6DE904CE00F006F8DDF804E0A4
:100BD000DDE9022304B070472DE9F047089D044683
:100BE0008E46002B4DD18A42944669D9B2FA82F2E0
:100BF00052B101FA02F3C2F1200120FA01F10CFA1C
:100C000002FC41EA030E94404FEA1C48210CBEFB53
:100C1000F8F61FFA8CF708FB16E341EA034306FBDC
:100C200007F199420AD91CEB030306F1FF3080F06B
:100C30001F81994240F21C81023E63445B1AA4B2B8
:100C4000B3FBF8F008FB103344EA034400FB07F75A
:100C5000A7420AD91CEB040400F1FF3380F00A819B
:100C6000A74240F207816444023840EA0640E41B90
:100C700000261DB1D4400023C5E900433146BDE83C
:100C8000F0878B4209D9002D00F0EF800026C5E9DE
:100C9000000130463146BDE8F087B3FA83F6002EF6
:100CA0004AD18B4202D3824200F2F980841A61EB6E
:100CB000030301209E46002DE0D0C5E9004EDDE78C
:100CC00002B9FFDEB2FA82F2002A40F09280A1EB74
:100CD0000C014FEA1C471FFA8CFE0126200CB1FBC9
:100CE000F7F307FB131140EA01410EFB03F08842C2
:100CF00008D91CEB010103F1FF3802D2884200F24F
:100D0000CB804346091AA4B2B1FBF7F007FB1011E0
:100D100044EA01440EFB00FEA64508D91CEB04047E
:100D200000F1FF3102D2A64500F2BB800846A4EBD9
:100D30000E0440EA03409CE7C6F12007B34022FAC4
:100D400007FC4CEA030C20FA07F401FA06F31C43F3
:100D5000F9404FEA1C4900FA06F3B1FBF9F8200C00
:100D60001FFA8CFE09FB181140EA014108FB0EF046
:100D7000884202FA06F20BD91CEB010108F1FF3A96
:100D800080F08880884240F28580A8F102086144A2
:100D9000091AA4B2B1FBF9F009FB101144EA0141B0
:100DA00000FB0EFE8E4508D91CEB010100F1FF345B
:100DB0006CD28E456AD90238614440EA0840A0FBF3
:100DC0000294A1EB0E01A142C846A64656D353D0C9
:100DD0005DB1B3EB080261EB0E0101FA07F722FAED
:100DE00006F3F1401F43C5E9007100263146BDE816
:100DF000F087C2F12003D8400CFA02FC21FA03F379
:100E0000914001434FEA1C471FFA8CFEB3FBF7F0F9
:100E100007FB10360B0C43EA064300FB0EF69E421E
:100E200004FA02F408D91CEB030300F1FF382FD2B7
:100E30009E422DD9023863449B1B89B2B3FBF7F65F
:100E400007FB163341EA034106FB0EF38B4208D938
:100E50001CEB010106F1FF3816D28B4214D9023E79
:100E60006144C91A46EA004638E72E46284605E797
:100E70000646E3E61846F8E64B45A9D2B9EB020868
:100E800064EB0C0E0138A3E74646EAE7204694E7F8
:100E90004046D1E7D0467BE7023B614432E730462B
:100EA00009E76444023842E7704700BF80B584B068
:100EB00000AF78607868FFF78BF90346BB600023CA
:100EC000FB6007E0FB687A68134400221A70FB6835
:100ED0000133FB60FA68BB689A42F3DB00BF00BFD6
:100EE0001037BD4680BD000080B596B000AF786079
:100EF000396000F053F92F4800F01CFA4FF47A7073
:100F000002F0D4FF00F092F92B4800F013FA00BF72
:100F10002A4800F03FFA0346002BF9D000F086F98A
:100F2000274800F007FA00BF244800F033FA0346D0
:100F3000002BF9D000F07AF9224800F0FBF900BF4D
:100F40001E4800F027FA0346002BF9D000F06EF996
:100F500007F108003B687A681B490AF051FA07F16B
:100F60000803184600F0E6F900BF184800F012FA2E
:100F70000346002BF9D000F059F9154800F0DAF9D2
:100F800000BF0E4800F006FA0346002BF9D01148C6
:100F9000FFF78CFF10490F480AF032FA322328225B
:100FA0000C490E4806F077F800F040F900BF5837BA
:100FB000BD4680BD20DA00082CDA000834DA0008CB
:100FC0003CDA00084CDA00085CDA000874DA000841
:100FD00084DA0008600A002094DA0008A4360020B1
:100FE00080B5ADF53E7D00AF07F53E73A3F53B73CD
:100FF000186007F53E73A3F53C73196007F53E735F
:10100000A3F53D731A6007F53E73A3F5FE73002246
:101010001A6004334FF4F8720021184609F076FC88
:1010200007F53E73A3F5077300221A60043300220C
:101030001A605A609A60DA601A615A611A8307F579
:101040003E73A3F5397300221A600433C4220021D1
:10105000184609F05BFC484800F06CF900BF4748AF
:1010600000F098F90346002BF9D007F53E73A3F57D
:101070003B7307F1FC001A6841490AF0C1F90023EB
:10108000C7F8F4321FE0D7F8F432591CD7F8F4321D
:101090009B0007F53E72A2F53D72126813441B686F
:1010A00007F114000A4637490AF0AAF907F11402B9
:1010B00007F1FC03114618460AF0C2F9D7F8F432DA
:1010C0000133C7F8F43207F53E73A3F53C73D7F844
:1010D000F4221B689A42D6DB07F1FC031846FFF79F
:1010E00077F803461A4607F1FC031344264A118891
:1010F000927819809A7007F1FC031846FFF768F898
:101100000346C7F8F03207F1DC03D7F8F0221F4995
:1011100018460AF075F907F1DC03184600F00AF9E1
:1011200000BF1B4800F036F90346002BF9D007F149
:10113000FC03184600F0FEF800BF164800F02AF93C
:101140000346002BF9D000BF134800F023F90346F3
:10115000002BF9D007F1FC031846FFF7A7FE07F1B3
:10116000DC031846FFF7A2FE00F018F800BF07F5F1
:101170003E77BD4680BD00BFA4DA000834DA00081F
:101180001CDB000834DB000840DB0008F4DA000850
:1011900004DB000808DB000814DB000880B400AFA3
:1011A0000D4B0E4A1A600E4B0E4A1A600E4B1B680E
:1011B0005A690D4B1B6842F001025A610A4B1B68C9
:1011C000DA68094B1B6842F02002DA6000BFBD46B6
:1011D0005DF8047B704700BF180B0020880A0020D0
:1011E0001C0B0020D00A0020E836002080B485B017
:1011F00000AF03463960FB713B681B6C013303F0A1
:101200003F03FB603B685A6CFB689A4207D03B681F
:101210001B6C3A68F979D154FA683B681A6400BFCC
:101220001437BD465DF8047B7047000080B400AF02
:10123000054B1A68044B1B68526C1A6400BFBD460C
:101240005DF8047B704700BF180B002080B483B0AA
:1012500000AF114B1B681A6C0F4B1B685B6C9A42FA
:1012600002D14FF0FF3310E00B4B1A680A4B1B689A
:101270005B6CD35CFB71084B1B685B6C5A1C064BA8
:101280001B6802F03F025A64FB7918460C37BD46D2
:101290005DF8047B704700BF180B002080B485B058
:1012A00000AF78607B68002B21DB144B1B681B6C44
:1012B000013303F03F03FB6000BF104B1B685A6C07
:1012C000FB689A42F9D00D4B1A680C4B1B681B6CDB
:1012D0007968C9B2D154094B1B68FA681A64084B83
:1012E0001B68DA68064B1B6842F08002DA6000BFB8
:1012F0001437BD465DF8047B704700BF1C0B00200F
:10130000E836002080B400AF094B1B681B6C9AB212
:10131000074B1B685B6C9BB2D31A9BB240339BB2EA
:1013200003F03F031846BD465DF8047B704700BFDD
:10133000180B002080B582B000AF786006E07B68B3
:101340005A1C7A601B781846FFF7A8FF7B681B7849
:10135000002BF4D100BF00BF0837BD4680BD0000A0
:1013600080B400AF0A4B1B681A6C094B1B685B6C9E
:101370009A4202D14FF0FF3305E0054B1A68044B47
:101380001B685B6CD35C1846BD465DF8047B7047F8
:10139000180B002080B584B000AF78600023FB609C
:1013A0007868FEF715FF0346BB6000BFFFF7AAFF92
:1013B0000346002BFAD0FFF7D3FF0146FB687A689B
:1013C00013441B7899421AD01B4B1B685B6C5A1C48
:1013D000194B1B6802F03F025A64E6E7FB680133D1
:1013E000FB60FFF733FFFA68BB689A4201D1012323
:1013F0001DE000BFFFF786FF0346002BFAD0FFF782
:10140000AFFF0146FB687A6813441B789942E5D028
:10141000FA68BB689A4202D00023FB60C5E7FA680D
:10142000BB689A4201D1012301E04FF0FF33184617
:101430001037BD4680BD00BF180B002080B586B0B8
:1014400000AF78607B681B681B687B617B681B68EA
:10145000DB683B617B6903F02003002B13D03B6901
:1014600003F02003002B0ED07B681B681B687B6891
:101470001B685B68FB731C4B1A68FB7B11461846A4
:10148000FFF7B4FE2CE07B6903F08003002B27D02C
:101490003B6903F08003002B22D0144B1A6C134BD2
:1014A0005B6C9A4208D17B681B68DA687B681B68B2
:1014B00022F08002DA6012E00C4B5B6C0B4AD35CCA
:1014C000BB730A4B5B6C013303F03F03074A536461
:1014D0007B681B681B687B681B68BA7B5A6000BF0F
:1014E0001837BD4680BD00BF180B0020D00A002071
:1014F00080B586B004AF03460A46FB711346BB7144
:101500000B4B1868FB799AB20123029301230193D4
:10151000BB1D00930123AE2103F04AF90346002BC3
:1015200001D1012300E0002318460837BD4680BDE5
:10153000200B002080B586B004AF03463960FB71F4
:101540000B4B1868FB799AB2012302930123019394
:101550003B6800930123AE2103F024FA0346002BDD
:1015600001D1012300E0002318460837BD4680BDA5
:10157000200B002080B584B000AF0346FB710B4602
:10158000BB7113467B7107F10F02FB7911461846B8
:10159000FFF7D0FF0346012B01D0002325E0BB79E4
:1015A000012202FA03F35BB2DB435AB2FB7B5BB26C
:1015B00013405BB2DBB2FB737B7903F00102BB79B2
:1015C00002FA03F35AB2FB7B5BB213435BB2DBB2AA
:1015D000FB73FA7BFB7911461846FFF789FF034638
:1015E000012B01D0002300E0012318461037BD462F
:1015F00080BD000080B58AB004AF786039607B6838
:1016000000221A603B6800221A60304B18680123E0
:1016100002930623019307F10C0300930123072291
:10162000AE2103F0BFF90346002B01D0002348E0B0
:101630003B7B7B617B691B047B617B681A687B69F0
:101640001A447B681A607B7B7B617B691B027B6130
:101650007B681A687B691A447B681A60BB7B7B6174
:101660007B681A687B691A447B681A60FB7B7B6124
:101670007B691B047B613B681A687B691A443B6881
:101680001A603B7C7B617B691B027B613B681A684B
:101690007B691A443B681A607B7C7B613B681A68F3
:1016A0007B691A443B681A607B681B68C3F31102AC
:1016B0007B681A603B681B68C3F311023B681A60C1
:1016C000012318461837BD4680BD00BF200B0020FF
:1016D00080B582B000AF0346FB71FB791A46072143
:1016E0000220FFF747FF034618460837BD4680BD76
:1016F00080B582B000AF0346FB71FB791A46062124
:101700000220FFF737FF034618460837BD4680BD65
:1017100080B584B000AF78607B6800221A7007F152
:101720000F0319460020FFF705FF0346012B01D0E8
:1017300000230DE07B681B785AB2FB7B5BB223F081
:101740001E035BB213435BB2DAB27B681A700123EB
:1017500018461037BD4680BD80B582B000AF00BFCF
:10176000BB1D1846FFF7D4FF0346012BF8D1BB7908
:101770005BB2002B4ADA0023FB7144E000BF494B07
:101780001B689B00484A1A44464B1B689B0047490C
:101790000B4419461046FFF72DFF0346012BEED1EF
:1017A000434B1B78DBB2002B0CD03E4B1B683F4AEF
:1017B00052F823304CF24F3293420ED83C4B002269
:1017C0001A700AE0374B1B68384A52F82330B3F5D9
:1017D000C86F02D9364B01221A70324B1B685A1C53
:1017E000344BA3FB02139B094FF4167101FB03F367
:1017F000D31A2C4A1360304B1B6801332E4A1360F6
:10180000FB790133FB71FB79102BB7D9BB7903F05E
:101810004003002B41D000BF224B1B689B00224A93
:101820001A44204B1B689B0020490B441946104664
:10183000FFF7E0FE0346012BEED11D4B1B78DBB218
:10184000002B0CD0174B1B68184A52F823304CF26F
:101850004F3293420ED8164B00221A700AE0114BF9
:101860001B68124A52F82330B3F5C86F02D9104BE7
:1018700001221A700B4B1B685A1C0E4BA3FB021360
:101880009B094FF4167101FB03F3D31A054A136049
:10189000094B1B680133084A136000BF0837BD4677
:1018A00080BD00BFE41D002084140020240B002014
:1018B000F01D0020B5814E1BEC1D002080B582B0CC
:1018C00000AF0346FB71FB7903F01F03DBB219463F
:1018D0000420FFF70DFE0346012B01D0002300E09A
:1018E000012318460837BD4680BD80B582B000AFE1
:1018F0000346FB71FB7903F01F03DBB21946052099
:10190000FFF7F6FD0346012B01D0002300E0012381
:1019100018460837BD4680BD80B582B000AF03468B
:10192000FB71FB7903F01F03DBB219460620FFF7BA
:10193000DFFD0346012B01D0002300E00123184600
:101940000837BD4680BD80B584B000AF0346FB714B
:1019500007F10F0319460820FFF7ECFD0346012BA2
:1019600001D0002318E0FB7B23F00703DBB2FB73FD
:10197000FB795B015AB2FB7B5BB213435BB2DBB218
:10198000FB73FB7B19460820FFF7B2FD0346012BD2
:1019900001D0002300E0012318461037BD4680BD6A
:1019A00080B582B000AF0346FB71FB7903F0010301
:1019B000DBB21A4604210820FFF7DCFD0346184677
:1019C0000837BD4680BD80B584B000AF0346FB71CB
:1019D000FB79102B01D81123FB71FB79202B01D946
:1019E0002023FB71FB79C3F12003FB7107F10F0387
:1019F00019460820FFF79EFD0346012B01D0002366
:101A00001AE0FB7B23F00F03DBB2FB7397F907307F
:101A100003F00F035AB2FB7B5BB213435BB2DBB242
:101A2000FB73FB7B19460820FFF762FD0346012B81
:101A300001D0002300E0012318461037BD4680BDC9
:101A400080B582B000AFFF23FB7140210920FFF772
:101A50004FFD0346012B01D000230FE0FB1D19466B
:101A60000920FFF767FD0346012B01D0002305E0A5
:101A7000FB7903F04003002BF0D10123184608370F
:101A8000BD4680BD80B584B000AF0346FB7107F151
:101A90000F0319460920FFF74DFD0346012B01D026
:101AA00000231AE0FB7B23F00703DBB2FB7397F9FB
:101AB000073003F007035AB2FB7B5BB213435BB200
:101AC000DBB2FB73FB7B19460920FFF711FD0346D0
:101AD000012B01D0002300E0012318461037BD463A
:101AE00080BD80B584B000AF0346FB7107F10F03E2
:101AF00019460A20FFF71EFD0346012B01D00023E3
:101B00001BE0FB7B23F00303DBB2FB73FB795B0180
:101B10005BB203F060035AB2FB7B5BB213435BB270
:101B2000DBB2FB73FB7B19460A20FFF7E1FC03469F
:101B3000012B01D0002300E0012318461037BD46D9
:101B400080BD80B584B000AF0346FB7107F10F0381
:101B500019460A20FFF7EEFC0346012B01D00023B3
:101B60001BE0FB7B23F00703DBB2FB73FB799B00DD
:101B70005BB203F01C035AB2FB7B5BB213435BB254
:101B8000DBB2FB73FB7B19460A20FFF7B1FC03466F
:101B9000012B01D0002300E0012318461037BD4679
:101BA00080BD80B584B000AF0346FB7107F10F0321
:101BB00019460A20FFF7BEFC0346012B01D0002383
:101BC0001AE0FB7B23F00303DBB2FB7397F90730CA
:101BD00003F003035AB2FB7B5BB213435BB2DBB28D
:101BE000FB73FB7B19460A20FFF782FC0346012B9F
:101BF00001D0002300E0012318461037BD4680BD08
:101C000080B582B000AF0346FB71FB7919460C200A
:101C1000FFF76EFC0346012B01D0002300E00123F7
:101C200018460837BD4680BD80B582B000AF034678
:101C3000FB71FB7919460D20FFF75AFC0346012B77
:101C400001D0002300E0012318460837BD4680BDBF
:101C500080B400AF034B1B78DBB21846BD465DF87D
:101C6000047B7047F01D002080B400AF034B1B685D
:101C70001846BD465DF8047B704700BFFC1D002080
:101C800080B400AF034B93F900301846BD465DF8B1
:101C9000047B7047001E002080B400AF034B1B681C
:101CA0001846BD465DF8047B704700BFF41D002058
:101CB00080B400AF034B93F900301846BD465DF881
:101CC000047B7047F81D002080B584B004AF544BEE
:101CD0001B78032B00F2A18001A252F823F000BF71
:101CE000F11C00082B1D00085B1D0008E31D000807
:101CF0004C4B00221A604C4B00221A604B4B1B7855
:101D0000DBB2002B00F08480494B00221A60494B63
:101D10001B68494A13602420FFF772FF2420FFF755
:101D200083FF3F4B01221A7072E0404B1B78DBB2FD
:101D3000002B08D03E4B1B68B3F5FA7F6AD9384BAD
:101D400002221A7066E00020FFF75AFF0120FFF719
:101D50006BFF334B00221A705CE0344B1B78DBB214
:101D6000002B26D0344B1B689BB2344A03922D4A79
:101D70000292334A01922C4A00924FF4FA7231498E
:101D8000314800F001F92C4B1B6803F164022F4B22
:101D9000A3FB02139B094FF4167101FB03F3D31A43
:101DA000254A1360224B00221A601D4B03221A7031
:101DB00008E00020FFF724FF0120FFF735FF184B54
:101DC00000221A702248FFF771F82249204809F0D2
:101DD00017FB214B1868322328221D4905F05BF9B7
:101DE0001BE0124B1B78DBB2002B07D0104B1B689B
:101DF000642B11D90A4B02221A700DE00020FFF764
:101E0000FFFE0120FFF710FF054B00221A7003E0D0
:101E100000BF02E000BF00E000BF00BFBD4680BDC4
:101E2000011E0020FC1D0020F41D0020F01D0020DC
:101E3000EC1D0020E41D0020E81D0020001E0020F5
:101E4000F81D002084140020240B0020B5814E1BB7
:101E5000041E002044DB00080000002080B584B090
:101E600000AF7860464A7B681360FFF7E9FD0346E0
:101E7000012B01D000237EE007F10F03194600205B
:101E8000FFF758FB0346012B01D0002373E000202D
:101E9000FFF714FD0346012B01D000236BE0002067
:101EA000FFF723FD0346012B01D0002363E0002050
:101EB000FFF732FD0346012B01D000235BE0002039
:101EC000FFF741FD0346012B01D0002353E0002022
:101ED000FFF766FD0346012B01D000234BE01120E4
:101EE000FFF771FD0346012B01D0002343E00320DF
:101EF000FFF7C8FD0346012B01D000233BE0012082
:101F0000FFF7EFFD0346012B01D0002333E0012052
:101F1000FFF717FE0346012B01D000232BE003201F
:101F2000FFF73FFE0346012B01D0002323E00020F2
:101F3000FFF766FE0346012B01D000231BE00120C2
:101F4000FFF772FE0346012B01D0002313E00120AE
:101F5000FFF7BEFB0346012B01D000230BE001205D
:101F6000FFF7C6FB0346012B01D0002303E0054B1E
:101F700000221A70012318461037BD4680BD00BFED
:101F8000200B0020011E002090B5D3B004AF07F550
:101F90009C74A4F59674206007F59C70A0F5987069
:101FA000016007F59C71A1F59A710A601A4607F560
:101FB0009C73A3F59B731A8007F59C73A3F59B7321
:101FC0001B88C7F8F8300023C7F834310023C7F85E
:101FD0002C3121E0D7F8F8309B0007F59C72A2F570
:101FE0009672126813441B68D7F834211344C7F85B
:101FF0003431D7F8F8300133D44AA2FB03129209E6
:102000004FF4167101FB02F29B1AC7F8F830D7F8AB
:102010002C310133C7F82C3107F59C73A3F59A7363
:10202000D7F82C211B689A42D4DB07F59C73A3F5E3
:102030009A731B68D7F83421B2FBF3F3C7F8343135
:1020400007F59C73A3F59B731B88C7F8F830002332
:10205000C7F82C3125E0D7F8F8309B0007F59C72C3
:10206000A2F59672126813441A68D7F83431D31A5D
:102070001946B74AD7F82C3142F82310D7F8F83070
:102080000133B24AA2FB031292094FF4167101FB0D
:1020900002F29B1AC7F8F830D7F82C310133C7F891
:1020A0002C3107F59C73A3F59A73D7F82C211B6884
:1020B0009A42D0DB0023C7F82C312CE0A44AD7F891
:1020C0002C3152F82320D7F82C310133A04951F894
:1020D00023301A44D7F82C3102339D4951F823306C
:1020E0001A44D7F82C310333994951F8233013445B
:1020F000C7F8E030D7F8E030002B00DA03339B104C
:102100001946934AD7F82C3142F82310D7F82C31CE
:102110000133C7F82C31D7F82C31B3F5F87FCDDB7C
:102120000023C7F82C3115E0D7F82C310133884A49
:1021300052F823208649D7F82C3151F82330D21A8F
:102140008449D7F82C3141F82320D7F82C310133BA
:10215000C7F82C31D7F82C31B3F5F77FE4DD002335
:10216000C7F82C3119E07B4AD7F82C3152F82320DC
:10217000D7F82C310133774951F823301344DA0F63
:1021800013445B101946734AD7F82C3142F82310D8
:10219000D7F82C310133C7F82C31D7F82C31B3F5EF
:1021A000F77FE0DB0023C7F8243139E00023C7F8CC
:1021B0002031D7F82431C7F82C3118E0654AD7F818
:1021C0002C3152F82330D7F82C11D7F824218A1A51
:1021D000614931F8122002FB03F3D7F82021D31A0A
:1021E000C7F82031D7F82C310133C7F82C31D7F894
:1021F00024310433D7F82C219A42DFDDD7F820317F
:10220000564A82FB03125212DB17D21A5149D7F8F1
:10221000243141F82320D7F824310133C7F8243181
:10222000D7F82431B3F5F47FC0DD0023C7F81831A7
:102230000023C7F82C3111E0464AD7F82C3152F868
:102240002330002BB8BF5B42D7F818211344C7F8DE
:102250001831D7F82C310133C7F82C31D7F82C318D
:10226000B3F5F77FE8DDD7F818313D4A82FB03125A
:102270009211DB17D31AC7F8183107F1D80107F10B
:1022800024000523029308230193D7F81831009303
:1022900040F2EF132F4A00F091FB0023C7F81031F2
:1022A000D7F8D830012B44DD0123C7F82C311BE0CF
:1022B00007F59C73A3F58A73D7F82C2153F82220D5
:1022C000D7F82C31591E07F59C73A3F58A7353F880
:1022D0002130D31AD7F810211344C7F81031D7F89A
:1022E0002C310133C7F82C31D7F8D830D7F82C214E
:1022F0009A42DDDBD7F8D830013BD7F8102192FBAA
:10230000F3F3C7F81031D7F8103107EE903AB8EE72
:10231000E77ADFED146AC6EE877AFDEEE77A17EE0C
:10232000902AD7F850311A60D7F8543101221A7028
:1023300007E0D7F850310C4A1A60D7F85431002220
:102340001A700023C7F82C3126E000BFB5814E1B60
:10235000EC2500202C1E0020F8DC0008ED9B5F72AD
:10236000675719210080BB4519FCFFFF07F59C73D7
:10237000A3F58A73D7F82C2153F822309A1CD7F88A
:102380002C319B0003F59C733B4443F89C2CD7F8FD
:102390002C310133C7F82C31D7F8D830D7F82C219D
:1023A0009A42E3DB07F59C73A3F59B731B88C7F880
:1023B000F8300023C7F82C3132E0D7F8F8309B0012
:1023C00007F59C72A2F59672126813441B681946B1
:1023D000B34AD7F82C3142F82310D7F8F8309B00D5
:1023E00007F59C72A2F59872126813441B6819468F
:1023F000AC4AD7F82C3142F82310D7F8F830013323
:10240000A94AA2FB031292094FF4167101FB02F2D2
:102410009B1AC7F8F830D7F82C310133C7F82C31A4
:1024200007F59C73A3F59A73D7F82C211B689A4281
:10243000C3DB0023C7F81C310023C7F82C315AE056
:102440000123C7F83031D7F82C319B0003F59C737A
:102450003B4453F89C3CC7F8DC304FF08073C7F81E
:102460001431D7F8DC30B3F5F57F3FDAD7F8DC303C
:10247000052B3BDDD7F8DC30053BC7F8243125E0E0
:10248000874AD7F8243152F82330D7F814219A42DA
:1024900017DDD7F83031002B02D00023C7F83031D8
:1024A0007F4AD7F8243152F82330C7F81431D7F8CF
:1024B0002C319B0003F59C733B44D7F8242143F84F
:1024C000D82CD7F824310133C7F82431D7F8DC30C1
:1024D0000433D7F824219A42D2DDD7F83031002BCB
:1024E00004D1D7F81C310133C7F81C31D7F82C318F
:1024F0000133C7F82C31D7F8D830D7F82C219A42BD
:102500009EDBD7F81C31012B08DCD7F84831674A2D
:102510001A60D7F84C3100221A7043E20023C7F842
:102520002C314CE05E4AD7F82C3152F82320D7F8F2
:102530002C3101335A4951F823301A44D7F82C3141
:102540000233574951F823301A44D7F82C3103335A
:10255000534951F823301344002B00DA03339B1006
:1025600019464F4AD7F82C3142F823104D4AD7F874
:102570002C3152F82320D7F82C310133494951F836
:1025800023301A44D7F82C310233464951F823300E
:102590001A44D7F82C310333424951F823301344FD
:1025A000002B00DA03339B1019463E4AD7F82C3132
:1025B00042F82310D7F82C310133C7F82C31D7F863
:1025C0002C31B3F5F87FADDB0023C7F8FC300023D6
:1025D000C7F828310023C7F82C310DE007F59C73AC
:1025E000A3F59473D7F82C21002143F82210D7F8D3
:1025F0002C310133C7F82C31D7F82C31042BEDDD09
:102600000023C7F82C3118E0D7F82C319B0003F5D4
:102610009C733B4453F8D83CB3F5FA7F08DDD7F8F8
:102620004831224A1A60D7F84C3100221A70B9E1B9
:10263000D7F82C310133C7F82C31D7F82C21D7F833
:102640001C319A42E0DB0023C7F82C314DE14FF0FA
:102650007F43C7F80C314FF07F43C7F80831D7F8F4
:102660002C3101339B0003F59C733B4453F8D82C69
:10267000D7F82C319B0003F59C733B4453F8D83CAE
:10268000D31A0A2B40F32C81D7F82C319B0003F589
:102690009C733B4453F8D83CC7F8243135E000BF65
:1026A000EC250020BC2D0020B5814E1B19FCFFFF3E
:1026B000BE4AD7F8243152F82330D7F808219A427D
:1026C0000ADABA4AD7F8243152F82330C7F8083169
:1026D000D7F82431C7F80031B54AD7F8243152F879
:1026E0002330D7F80C219A420ADAB14AD7F82431BC
:1026F00052F82330C7F80C31D7F82431C7F8043129
:10270000D7F824310133C7F82431D7F82C310133FD
:102710009B0003F59C733B4453F8D83CD7F8242125
:102720009A42C5DBD7F82C3101339B0003F59C732B
:102730003B4453F8D83C9E4A52F82320D7F82C311A
:102740009B0003F59C733B4453F8D83C984951F8DF
:102750002330D21AD7F82C319B0003F59C733B44ED
:1027600053F8D83CD7F80411CB1A02FB03F3C7F88F
:10277000EC30D7F82C319B0003F59C733B4453F8A5
:10278000D83C8B4A52F82320D7F82C3101339B00D8
:1027900003F59C733B4453F8D81CD7F82C319B00AD
:1027A00003F59C733B4453F8D83CCB1AD7F8EC1094
:1027B00091FBF3F31344C7F8EC307D4AD7F80431AA
:1027C00052F82320D7F8EC30D31AC7F8EC30D7F8FA
:1027D0002C3101339B0003F59C733B4453F8D83CE8
:1027E000724A52F82320D7F82C319B0003F59C73D2
:1027F0003B4453F8D83C6D4951F82330D21AD7F8EE
:102800002C319B0003F59C733B4453F8D83CD7F81C
:102810000011CB1A02FB03F3C7F8E830D7F82C31CC
:102820009B0003F59C733B4453F8D83C5F4A52F835
:102830002320D7F82C3101339B0003F59C733B44D4
:1028400053F8D81CD7F82C319B0003F59C733B44FC
:1028500053F8D83CCB1AD7F8E81091FBF3F31344A4
:10286000C7F8E830514AD7F8043152F82320D7F896
:10287000E830D31AC7F8E830D7F8EC30D7F8082199
:1028800002FB03F3DB11C7F8E430D7F8E830D7F8E0
:102890000C2102FB03F3DB11C7F8E030D7F8E0307E
:1028A000002B1DDDD7F82831042B19DCD7F8E430D4
:1028B000002B15D0D7F8E430642203FB02F2D7F8DE
:1028C000E03092FBF3F107F59C73A3F59473D7F80E
:1028D000282143F82210D7F828310133C7F82831CE
:1028E000D7F82C310133C7F82C31D7F81C31013B14
:1028F000D7F82C219A42FFF6AAAE07F11003D7F8B9
:102900002811184600F04FF9D7F82831DA0F134490
:102910005B10C7F8F430D7F8F430012B17DDD7F887
:10292000F4305A1E07F59C73A3F5947353F82220D4
:1029300007F59C73A3F59473D7F8F41053F821307E
:102940001344DA0F13445B10C7F8FC3009E007F5B5
:102950009C73A3F59473D7F8F42053F82230C7F88A
:10296000FC30D7F8FC30022B14DDD7F8FC30B72B45
:1029700010DC104AD7F8FC3013441B78C7F8F0304D
:10298000D7F84831D7F8F0201A60D7F84C31012237
:102990001A7007E0D7F84831074A1A60D7F84C3167
:1029A00000221A7007F59E77BD4690BDEC250020E9
:1029B000BC2D002038DD000819FCFFFF80B586B073
:1029C00002AFF860B9607A603B60BB6900933B6816
:1029D0007A68B968F86800F012F8FB697A68B96833
:1029E000F86800F080F8BB681A683B6A9A42A8BF92
:1029F0001A46BB681A6000BF1037BD4680BD80B460
:102A000087B000AFF860B9607A603B6001237B61FA
:102A1000BB6800221A605AE07B699B007A68134405
:102A20001B683A6A9A424FDA7B699B007A681344C2
:102A30001A687B6903F18043013B9B0079680B4472
:102A40001B689A4240DD01233B6102E03B69013390
:102A50003B617A693B6913443A689A420DDD7B69B0
:102A60009B007A6813441A6879693B690B449B00A0
:102A700079680B441B689A42E8D07B699B007A68AE
:102A800013441A6879693B690B449B0079680B44CD
:102A90001B689A4213DDBB681B680E2B0FDCBB68FA
:102AA0001B68591CBA6811609B00FA6813447A6964
:102AB0001A603B6901337A6913447B6103E07A69E8
:102AC0003B6913447B6102E07B6901337B613B68B6
:102AD000013B7A699A429FDB00BF00BF1C37BD46AD
:102AE0005DF8047B704780B588B000AFF860B960CE
:102AF0007A603B60BB681B681A46F968786800F02A
:102B000095F84FF0FF33FB613EE0BB681B687B61CB
:102B1000FB695A1CBB681A60FB690133BB612CE07E
:102B2000BB699B00FA6813441A68FB69B3F1FF3F65
:102B300005D0FB699B00F9680B441B6801E04FF06E
:102B4000FF33D31A3B613A693B689A4204DC3B6825
:102B50005B423A699A420DDABB699B00FA681A44F3
:102B6000BB681B68581CB96808609B00F9680B4477
:102B700012681A60BB690133BB61BA697B699A420A
:102B8000CEDBFB690133FB61BB681B68FA699A42C3
:102B9000BBDBBB681B681946F86800F004F800BF8F
:102BA0002037BD4680BD80B487B000AF7860396003
:102BB00001237B612FE07B699B007A6813441B68CB
:102BC000FB607B693B610FE03B6903F18043013BA4
:102BD0009B007A681A443B699B0079680B44126831
:102BE0001A603B69013B3B613B69002B0ADD3B6995
:102BF00003F18043013B9B007A6813441B68FA6829
:102C00009A42E1DB3B699B007A681344FA681A60D8
:102C10007B6901337B617A693B689A42CBDB00BFF9
:102C200000BF1C37BD465DF8047B704780B489B097
:102C300000AFF860B9607A600123FB6137E0FB699F
:102C40009B00BA6813441B687B61FB69BB610FE0A2
:102C5000BB6903F18043013B9B00BA681A44BB691E
:102C60009B00B9680B4412681A60BB69013BBB61E9
:102C7000BB69002B12DD7B699B00FA6813441A685C
:102C8000BB6903F18043013B9B00B9680B441B689F
:102C90009B00F9680B441B689A42D9DCBB699B0016
:102CA000BA6813447A691A60FB690133FB61FA69F7
:102CB0007B689A42C3DB00BF00BF2437BD465DF886
:102CC000047B704780B584B002AF01F07DF800F05E
:102CD00093F900F069FB00F003FA00F011FB00F03B
:102CE00039FB00F0BDFA00F029FA00F0E5F900F038
:102CF00053FA42F2107001F0D9F8A248FEF7D6F864
:102D0000A149A04808F07CFB322332229D499F480C
:102D100004F0C1F900F0AAFB9A48FEF7C7F89C49F5
:102D2000984808F06DFB322332229649974804F008
:102D3000B2F99848FFF792F89248FEF7B7F896492B
:102D4000904808F05DFB322332228E498F4804F010
:102D5000A2F900F0B9FC8B48FEF7A8F88F49894822
:102D600008F04EFB322332228649884804F093F95A
:102D70008B498C48FEF7B8F88248FEF797F88A49E5
:102D8000804808F03DFB322332227E497F4804F020
:102D900082F901E000F04CFC844B1B68002BF9D059
:102DA00080E000F0B9FB00F043FC814B1B68814AD6
:102DB000126881499B000B441A607D4B1B680133EC
:102DC0007E4A12687C499B000B441A60784B1B6852
:102DD00002337B4A126878499B000B441A60744B9B
:102DE0001B680333724A1360714B1B684E2B4AD128
:102DF0006448FEF75BF87349624808F001FB322330
:102E000032226049614804F046F96F496A4800F08F
:102E100097FC00237B6019E05A48FEF747F86A4A9E
:102E20007B689B0013441B681846FDF78DFB024628
:102E30000B466649534808F0E3FA322332225149DF
:102E4000524804F028F97B6801337B607B68022BD1
:102E5000E2D903215C4800F0ABFC38604948FEF73A
:102E600025F83A685A493B6851F823305949454892
:102E700008F0C6FA322332224249444804F00BF9E2
:102E8000554A3B689360494B1B681A46524B1A607F
:102E9000524B1B681A46504B5A60514B1B781A46CE
:102EA0004D4BDA60424B1B684D2B7FF67AAF404B9F
:102EB00000221A603348FDF7F9FF474B1B6819469B
:102EC000454B5B681846444B9B681A46424BDB688F
:102ED0000193009203460A4642492A4808F090FAB4
:102EE000322332222749294804F0D5F83C4B1B787D
:102EF00083F00103DBB2002B03D043F6982000F0EF
:102F0000D5FF354A04213848FEF76AF8344B1B7860
:102F100083F00103DBB2002B02D0314B01221A7087
:102F20001848FDF7C3FF3149164808F069FA322303
:102F300032221449154804F0AEF800F0DBFF0022FD
:102F400047F230512A4803F063FA02F0D9FA01211E
:102F5000012002F0A9FA264803F01AFB02F0DCFA7D
:102F600000F04AF800F0D6FF0648FDF79FFF214920
:102F7000044808F045FA322332220249034804F09B
:102F80008AF88FE74037002080DB0008A436002055
:102F900090DB0008E8350020A0DB0008ACDB00086F
:102FA000BCDB0008C8DB0008D0DB0008703F002055
:102FB000783F002034370020783700203837002051
:102FC0003C370020E8DB0008B0380020FCDB0008BC
:102FD0000800002004DC00087C3F0020743F002033
:102FE0000400002010DC000820DC000834DC0008AD
:102FF0003C36002048DC000880B594B000AF07F1F3
:10300000200330220021184607F080FC07F10C0352
:1030100000221A605A609A60DA601A610023BB606D
:10302000234B1B6C224A43F080531364204B1B6CD0
:1030300003F08053BB60BB6800237B601D4B1B68A3
:103040001C4A43F4804313601A4B1B6803F480430B
:103050007B607B680A233B620123FB6210233B6396
:1030600001237B630023BB6307F12003184602F0B2
:103070005FFA0346002B01D000F000FC0F23FB6039
:1030800000233B6100237B610023BB610023FB61C4
:1030900007F10C030021184602F0C2FC0346002B86
:1030A00001D000F0EBFB00BF5037BD4680BD00BF34
:1030B000003802400070004080B500AF064B074A60
:1030C0001A60054801F047F80346002B01D000F0D4
:1030D000D5FB00BF80BD00BF8C3500200030024012
:1030E00080B500AF124B134A1A60114B124A5A6056
:1030F0000F4B00229A600E4B0022DA600C4B4FF40B
:1031000080421A610A4B00225A61094B00229A61DF
:10311000074B0022DA61064B00221A62044801F0D4
:1031200003FA0346002B01D000F0A8FB00BF80BDCE
:103130009435002000540040A086010080B500AF07
:10314000124B134A1A60114B124A5A600F4B00225D
:103150009A600E4B0022DA600C4B4FF480421A61E9
:103160000A4B00225A61094B00229A61074B002248
:10317000DA61064B00221A62044801F0D5F90346D1
:10318000002B01D000F07AFB00BF80BDE8350020A5
:1031900000580040A086010080B586B000AF3B1DFE
:1031A00000221A605A609A60DA601A6100233B605C
:1031B000294B2A4A1A60284B00225A60264B7F224C
:1031C0009A60254BFF22DA60234B00221A61224BC2
:1031D00000225A61204B00229A611F4802F0E2FE51
:1031E0000346002B01D000F049FB00233B71002374
:1031F0007B710023BB7100233B6100237B613B1D7E
:1032000001221946144802F043FF0346002B01D067
:1032100000F034FB01233B7001237B700123BB7062
:103220000023FB703B46012219460B4802F0CAFFFF
:103230000346002B01D000F021FB002245F20B01D8
:10324000054803F0E5F80346002B01D000F016FB1B
:1032500000BF1837BD4680BD3C3600200028004026
:1032600080B586B000AF07F1080300221A605A60EB
:103270009A60DA603B4600221A605A601E4B1F4A71
:103280001A601D4B4FF4FA425A601B4B00229A60A1
:10329000194B3222DA60184B00221A61164B0022B9
:1032A0005A61154B00229A61134803F0F7F903465F
:1032B000002B01D000F0E2FA4FF48053BB6007F11D
:1032C000080319460C4803F0E0FB0346002B01D02D
:1032D00000F0D4FA00233B6000237B603B46194694
:1032E000054803F0FBFD0346002B01D000F0C6FAB1
:1032F00000BF1837BD4680BD5C360020000001408D
:1033000080B500AF114B124A1A60104B4FF4E132F6
:103310005A600E4B00229A600C4B0022DA600B4B75
:1033200000221A61094B0C225A61084B00229A6153
:10333000064B0022DA61054803F060FE0346002BCD
:1033400001D000F09BFA00BF80BD00BFA436002072
:103350000010014080B500AF114B124A1A60104BAB
:103360004FF4E1325A600E4B00229A600C4B00225F
:10337000DA600B4B00221A61094B0C225A61084B90
:1033800000229A61064B0022DA61054803F036FEFE
:103390000346002B01D000F071FA00BF80BD00BFD2
:1033A000E83600200044004080B58AB000AF07F145
:1033B000140300221A605A609A60DA601A610023CE
:1033C0003B61284B1B6B274A43F004031363254BD7
:1033D0001B6B03F004033B613B690023FB60214B43
:1033E0001B6B204A43F0020313631E4B1B6B03F05D
:1033F0000203FB60FB680023BB601A4B1B6B194A7E
:1034000043F001031363174B1B6B03F00103BB6015
:10341000BB6800237B60134B1B6B124A43F008030D
:103420001363104B1B6B03F008037B607B684FF446
:1034300000537B614FF48813BB610223FB6107F1EA
:1034400014031946084800F0A3FE0022002128209A
:1034500000F04BFE282000F064FE00BF2837BD4678
:1034600080BD00BF003802400008024080B586B031
:1034700004AF4FF47A73029301230193FB1D009371
:1034800001237522D021234801F08CFAFB79682BA7
:103490003BD10023BB714FF47A7302930123019354
:1034A000BB1D009301236B22D0211A4801F080F943
:1034B0000723BB714FF47A73029301230193BB1D61
:1034C000009301231922D021124801F071F9182329
:1034D000BB714FF47A73029301230193BB1D0093D8
:1034E00001231C22D0210B4801F062F90023BB719B
:1034F0004FF47A73029301230193BB1D00930123C0
:103500001B22D021034801F053F900BF0837BD4604
:1035100080BD00BF9435002080B586B004AF4FF465
:103520007A730293062301933B46009301233B22C7
:10353000D021384801F036FA3B781B021AB27B786A
:103540001BB213431AB2344B1A80BB781B021AB257
:10355000FB781BB213431AB2304B1A803B791B0223
:103560001AB27B791BB213431AB22D4B1A802A4B25
:10357000B3F9003007EE903AF8EEE77A294BC3ED45
:10358000007A264BB3F9003007EE903AF8EEE77A6E
:10359000254BC3ED007A224BB3F9003007EE903A89
:1035A000F8EEE77A214BC3ED007A1B4BB3F90030FC
:1035B000002B01DA03F2FF73DB121BB207EE903A25
:1035C000F8EEE77A174BC3ED007A144BB3F90030ED
:1035D000002B01DA03F2FF73DB121BB207EE903A05
:1035E000F8EEE77A104BC3ED007A0D4BB3F90030DB
:1035F000002B01DA03F2FF73DB121BB207EE903AE5
:10360000F8EEE77A094BC3ED007A00BF0837BD46F4
:1036100080BD00BF943500202C3700202E370020BD
:103620003037002034370020383700203C37002066
:1036300080B500AFFEF790F8FEF746FBFEF708FBFB
:103640000346012B34D1FEF71BFB0346012B05D1AA
:10365000FEF70AFB0346174A136002E0154B0022EF
:103660001A60FEF725FB0346012B05D1FEF714FB7C
:103670000346114A136002E00F4B00221A600D4B03
:103680001B68002B03DC0C4B1B68002B10DD0B4868
:10369000FDF70CFC074B1A68074B1B6808490748E5
:1036A00007F0AEFE322332220449064803F0F3FC51
:1036B00000BF80BD703F0020743F002040370020D5
:1036C0005CDC0008A436002080B582B000AF174B48
:1036D0003B603B4600221946154804F09DF903461D
:1036E0007B603B79002B0AD03B7919467B68C3F39A
:1036F00017231A460F4807F05BFE00F0BFF80C4B8B
:103700001B680021184604F0FBF903460A4A1360BF
:10371000074B1B680021184604F00CFA0346074AC1
:10372000136000BF0837BD4680BD00BFBC38002015
:103730007437002070DC0008683F00206C3F0020D8
:1037400080B584B000AF78603960154B1B687A682B
:103750005A60144B1B683A685A60134B1B68104A36
:103760001168104A1268184604F03AFAF860FB68CB
:10377000012B11D00C4B1B68184604F02BF90346A3
:10378000BB603B7A1946BB68C3F317231A46074848
:1037900007F00EFE00F072F800BF1037BD4680BD86
:1037A000683F00206C3F0020743700209CDC00083C
:1037B00080B487B000AF786039607B681B687B613C
:1037C00000233B610123FB6017E0FB689B007A68E4
:1037D0001344D3ED007A97ED057AB4EEE77AF1EE73
:1037E00010FA07D5FB689B007A6813441B687B615D
:1037F000FB683B61FB680133FB60FA683B689A42F7
:10380000E3D33B6918461C37BD465DF8047B70471F
:1038100080B582B000AF0346FB80FB88B3F5005F44
:103820000AD1084B1B78002B06D0074802F086FF10
:10383000044B00221A7001E000BF00BF00BF083730
:10384000BD4680BD040000205C36002080B582B0FB
:1038500000AF78604FF40051064800F035FE034693
:10386000002B02D1044802F0D9FF00BF0837BD4643
:1038700080BD00BF000802405C36002080B400AF6D
:1038800072B600BFFEE7000080B483B000AF002333
:103890007B60104B5B6C0F4A43F4804353640D4BC9
:1038A0005B6C03F480437B607B6800233B60094BC7
:1038B0001B6C084A43F080531364064B1B6C03F0E7
:1038C00080533B603B6800BF0C37BD465DF8047B0E
:1038D000704700BF0038024080B485B000AF786008
:1038E0007B681B680B4A93420DD10023FB600A4B97
:1038F0001B6B094A43F480531363074B1B6B03F4A0
:103900008053FB60FB6800BF1437BD465DF8047B45
:10391000704700BF003002400038024080B58CB0D4
:1039200000AF786007F11C0300221A605A609A60A9
:10393000DA601A617B681B68334A93422DD10023F9
:10394000BB61324B1B6B314A43F0020313632F4BB5
:103950001B6B03F00203BB61BB694FF44073FB6157
:1039600012233B6200237B620323BB620423FB62BE
:1039700007F11C031946264800F00AFC00237B616E
:10398000224B1B6C214A43F4001313641F4B1B6C26
:1039900003F400137B617B6931E07B681B681D4A7F
:1039A00093422CD100233B61184B1B6B174A43F009
:1039B00002031363154B1B6B03F002033B613B696E
:1039C0004FF44063FB6112233B6200237B620323BD
:1039D000BB620423FB6207F11C0319460C4800F08C
:1039E000D7FB0023FB60094B1B6C084A43F48003A0
:1039F0001364064B1B6C03F48003FB60FB6800BF81
:103A00003037BD4680BD00BF005400400038024042
:103A1000000402400058004080B586B000AF7860D6
:103A200007F1080300221A605A609A60DA607B6826
:103A30001B68104A934219D10223BB604FF40073F4
:103A40007B6107F10803184602F0CAF90346002B10
:103A500001D0FFF713FF084B01221A60002200215A
:103A6000032000F042FB032000F05BFB00BF18378F
:103A7000BD4680BD002800403C0E474280B584B062
:103A800000AF78607B681B681A4A93422DD10023EF
:103A9000FB60194B5B6C184A43F001035364164BEF
:103AA0005B6C03F00103FB60FB680022002118201F
:103AB00000F01BFB182000F034FB0022002119202D
:103AC00000F013FB192000F02CFB002200211A202B
:103AD00000F00BFB1A2000F024FB002200211B2029
:103AE00000F003FB1B2000F01CFB00BF1037BD469D
:103AF00080BD00BF000001400038024080B58CB09E
:103B000000AF786007F11C0300221A605A609A60C7
:103B1000DA601A617B681B68364A93422DD1002314
:103B2000BB61354B5B6C344A43F010035364324B3A
:103B30005B6C03F01003BB61BB6900237B612E4B00
:103B40001B6B2D4A43F0010313632B4B1B6B03F0DC
:103B500001037B617B694FF4C063FB6102233B621D
:103B600000237B620323BB620723FB6207F11C0374
:103B70001946224800F00CFB38E07B681B68204A9D
:103B8000934233D100233B611B4B1B6C1A4A43F415
:103B900000331364184B1B6C03F400333B613B6927
:103BA0000023FB60144B1B6B134A43F008031363A1
:103BB000114B1B6B03F00803FB60FB686023FB6188
:103BC00002233B6200237B620323BB620723FB6269
:103BD00007F11C0319460B4800F0DAFA0022002115
:103BE000262000F082FA262000F09BFA00BF303732
:103BF000BD4680BD00100140003802400000024078
:103C000000440040000C024080B400AFFEE780B4E6
:103C100000AFFEE780B400AFFEE780B400AFFEE780
:103C200080B400AFFEE780B400AF00BFBD465DF8D2
:103C3000047B704780B400AF00BFBD465DF8047BD5
:103C4000704780B400AF00BFBD465DF8047B70478D
:103C500080B500AF00F00AF900BF80BD80B500AFAD
:103C6000024802F0EDFC00BF80BD00BF3C360020E2
:103C700080B500AF024802F000FE00BF80BD00BF6B
:103C80005C36002080B500AF024802F0F6FD00BFB0
:103C900080BD00BF5C36002080B500AF024802F056
:103CA000ECFD00BF80BD00BF5C36002080B500AFDA
:103CB000024802F0E2FD00BF80BD00BF5C3600207C
:103CC00080B500AF0248FDF7B9FB00BF80BD00BF63
:103CD000E836002080B500AF4FF4005000F00CFC37
:103CE00000BF80BD80B586B000AF7860144A154B28
:103CF000D31A7B617B693B61134B1B68002B02D19C
:103D0000114B124A1A60104B1A687B6813443A69C7
:103D10009A4207D206F0BAFD03460C221A604FF011
:103D2000FF3309E0084B1B68FB60074B1A687B6890
:103D30001344054A1360FB6818461837BD4680BD1A
:103D400000C00120000800008C3F002058400020E7
:103D500080B400AF064BD3F88830054A43F47003B3
:103D6000C2F8883000BFBD465DF8047B704700BFD5
:103D700000ED00E0DFF834D00D480E490E4A002374
:103D800002E0D458C4500433C4188C42F9D30B4A0F
:103D90000B4C002301E013600432A242FBD3FFF777
:103DA000D7FF06F079FDFEF78DFF704700C00120B8
:103DB00000000020440A0020F49E0108440A00206C
:103DC00054400020FEE7000080B500AF0E4B1B689A
:103DD0000D4A43F4007313600B4B1B680A4A43F40B
:103DE00080631360084B1B68074A43F480731360B9
:103DF000032000F06FF90F2000F008F8FFF744FDF2
:103E00000023184680BD00BF003C024080B582B050
:103E100000AF7860124B1A68124B1B7819464FF4AA
:103E20007A73B3FBF1F3B2FBF3F3184600F087F9B2
:103E30000346002B01D001230EE07B680F2B0AD82C
:103E4000002279684FF0FF3000F04FF9064A7B6896
:103E50001360002300E0012318460837BD4680BDEB
:103E6000140000201C0000201800002080B400AFC7
:103E7000064B1B781A46064B1B681344044A136012
:103E800000BFBD465DF8047B704700BF1C000020EA
:103E9000903F002080B400AF034B1B681846BD461E
:103EA0005DF8047B704700BF903F002080B584B070
:103EB00000AF7860FFF7EEFFB8607B68FB60FB68DF
:103EC000B3F1FF3F05D00A4B1B781A46FB68134439
:103ED000FB6000BFFFF7DEFF0246BB68D31AFA683B
:103EE0009A42F7D800BF00BF1037BD4680BD00BF63
:103EF0001C00002080B400AF054B1B68044A23F06F
:103F00000203136000BFBD465DF8047B704700BF2D
:103F100010E000E080B400AF054B1B68044A43F09A
:103F20000203136000BFBD465DF8047B704700BF0D
:103F300010E000E080B485B000AF78607B6803F0EB
:103F40000703FB600C4BDB68BB60BA684FF6FF03EE
:103F50001340BB60FB681A02BB68134343F0BF63A6
:103F600043F40033BB60044ABB68D36000BF14371E
:103F7000BD465DF8047B704700ED00E080B400AF03
:103F8000044BDB681B0A03F007031846BD465DF8C7
:103F9000047B704700ED00E080B483B000AF0346BF
:103FA000FB7197F90730002B0BDBFB7903F01F0245
:103FB000074997F907305B09012000FA02F241F83E
:103FC000232000BF0C37BD465DF8047B704700BF5F
:103FD00000E100E080B483B000AF03463960FB71BC
:103FE00097F90730002B0ADB3B68DAB20C4997F9E6
:103FF00007301201D2B20B4483F800230AE03B6879
:10400000DAB20849FB7903F00F03043B1201D2B284
:104010000B441A7600BF0C37BD465DF8047B704731
:1040200000E100E000ED00E080B489B000AFF8608E
:10403000B9607A60FB6803F00703FB61FB69C3F1B9
:104040000703042B28BF0423BB61FB690433062B41
:1040500002D9FB69033B00E000237B614FF0FF3294
:10406000BB6902FA03F3DA43BB681A407B699A40E2
:104070004FF0FF317B6901FA03F3D9437B680B40B2
:10408000134318462437BD465DF8047B7047000093
:1040900080B582B000AF78607B68013BB3F1807F70
:1040A00001D301230FE00A4A7B68013B53600F21D3
:1040B0004FF0FF30FFF78EFF054B00229A60044B54
:1040C00007221A60002318460837BD4680BD00BF8E
:1040D00010E000E080B582B000AF78607868FFF74C
:1040E00029FF00BF0837BD4680BD80B586B000AF50
:1040F0000346B9607A60FB7300237B61FFF73EFFE4
:1041000078617A68B9687869FFF78EFF024697F997
:104110000F3011461846FFF75DFF00BF1837BD4648
:1041200080BD80B582B000AF0346FB7197F90730C0
:104130001846FFF731FF00BF0837BD4680BD80B588
:1041400082B000AF78607868FFF7A2FF0346184698
:104150000837BD4680BD80B582B000AF78607B680F
:10416000002B01D101230EE07B685B79DBB2002BD1
:1041700005D17B6800221A717868FFF7ADFB7B6878
:1041800001225A71002318460837BD4680BD000041
:1041900080B489B000AF7860396000237B61002370
:1041A0003B610023BB610023FB616BE10122FB69E2
:1041B00002FA03F37B613B681B687A6913403B6139
:1041C0003A697B699A4240F05A813B685B6803F028
:1041D0000303012B05D03B685B6803F00303022B4C
:1041E00030D17B689B68BB61FB695B00032202FAEC
:1041F00003F3DB43BA691340BB613B68DA68FB69D0
:104200005B0002FA03F3BA691343BB617B68BA69C6
:104210009A607B685B68BB610122FB6902FA03F369
:10422000DB43BA691340BB613B685B681B0903F061
:104230000102FB6902FA03F3BA691343BB617B68AD
:10424000BA695A603B685B6803F00303032B17D01D
:104250007B68DB68BB61FB695B00032202FA03F346
:10426000DB43BA691340BB613B689A68FB695B003A
:1042700002FA03F3BA691343BB617B68BA69DA6077
:104280003B685B6803F00303022B23D1FB69DA0868
:104290007B68083253F82230BB61FB6903F00703E7
:1042A0009B000F2202FA03F3DB43BA691340BB61A0
:1042B0003B681A69FB6903F007039B0002FA03F3EA
:1042C000BA691343BB61FB69DA087B680832B969D4
:1042D00043F822107B681B68BB61FB695B0003220B
:1042E00002FA03F3DB43BA691340BB613B685B68C6
:1042F00003F00302FB695B0002FA03F3BA6913439C
:10430000BB617B68BA691A603B685B6803F4403341
:10431000002B00F0B4800023FB60604B5B6C5F4AB5
:1043200043F4804353645D4B5B6C03F48043FB6058
:10433000FB685B4AFB699B08023352F82330BB6180
:10434000FB6903F003039B000F2202FA03F3DB4334
:10435000BA691340BB617B68524A93422BD07B6899
:10436000514A934225D07B68504A93421FD07B68C4
:104370004F4A934219D07B684E4A934213D07B68D0
:104380004D4A93420DD07B684C4A934207D07B68DC
:104390004B4A934201D107230EE008230CE0062389
:1043A0000AE0052308E0042306E0032304E00223D7
:1043B00002E0012300E00023FA6902F00302920008
:1043C0009340BA691343BB613549FB699B080233CB
:1043D000BA6941F823203B4B9B68BB613B69DB43D7
:1043E000BA691340BB613B685B6803F48013002B20
:1043F00003D0BA693B691343BB61324ABB6993601E
:10440000304BDB68BB613B69DB43BA691340BB617E
:104410003B685B6803F40013002B03D0BA693B6967
:104420001343BB61274ABB69D360264B5B68BB6102
:104430003B69DB43BA691340BB613B685B6803F4CB
:104440000033002B03D0BA693B691343BB611D4A9B
:10445000BB6953601B4B1B68BB613B69DB43BA699B
:104460001340BB613B685B6803F48033002B03D0CF
:10447000BA693B691343BB61124ABB691360FB69AC
:104480000133FB61FB690F2B7FF690AE00BF00BFCD
:104490002437BD465DF8047B704700BF00380240FA
:1044A00000380140000002400004024000080240C1
:1044B000000C0240001002400014024000180240AC
:1044C000001C0240003C014080B485B000AF786021
:1044D0000B467B807B681A697B881340002B02D0D7
:1044E0000123FB7301E00023FB73FB7B18461437A9
:1044F000BD465DF8047B704780B582B000AF0346CF
:10450000FB80084B5A69FB881340002B06D0054AF4
:10451000FB885361FB881846FFF77AF900BF08371C
:10452000BD4680BD003C014080B584B000AF7860DE
:104530007B68002B01D101232BE17B6893F83D3090
:10454000DBB2002B06D17B68002283F83C20786820
:10455000FFF7E4F97B68242283F83D207B681B6821
:104560001A687B681B6822F001021A607B681B686E
:104570001A687B681B6842F400421A607B681B68FB
:104580001A687B681B6822F400421A6001F000FC84
:10459000F8607B685B68814A934207D8FB68804A71
:1045A000934294BF01230023DBB206E0FB687D4AFF
:1045B000934294BF01230023DBB2002B01D00123DF
:1045C000E7E0FB68784AA2FB03239B0CBB607B6897
:1045D0001B685B6823F03F017B681B68BA680A436D
:1045E0005A607B681B681B6A23F03F017B685B682D
:1045F0006A4A934202D8BB68013309E0BB684FF4B2
:10460000967202FB03F3694AA2FB03239B09013361
:104610007A6812680B4313627B681B68DB6923F4BA
:104620004F4222F0FF027B685B685C498B4219D8DD
:10463000FB68591E7B685B685B00B1FBF3F3591C98
:1046400040F6FC730B40002B0AD0FB68591E7B68B8
:104650005B685B00B1FBF3F30133C3F30B0351E081
:1046600004234FE07B689B68002B11D1FB68581E28
:104670007B6859680B465B000B44B0FBF3F30133D6
:10468000C3F30B03002B0CBF01230023DBB212E0AA
:10469000FB68581E7B6859680B469B000B449900C9
:1046A0000B44B0FBF3F30133C3F30B03002B0CBF3C
:1046B00001230023DBB2002B01D0012322E07B6821
:1046C0009B68002B0ED1FB68581E7B6859680B460F
:1046D0005B000B44B0FBF3F30133C3F30B0343F470
:1046E00000430FE0FB68581E7B6859680B469B002F
:1046F0000B4499000B44B0FBF3F30133C3F30B03FA
:1047000043F44043796809681343CB617B681B68B5
:104710001B6823F0C0017B68DA697B681B6A1A4357
:104720007B681B680A431A607B681B689B6823F4DC
:10473000034323F0FF037A6811697A68D268114352
:104740007A6812680B4393607B681B68DB6823F010
:10475000FF017B685A697B689B691A437B681B6809
:104760000A43DA607B681B681A687B681B6842F042
:1047700001021A607B6800221A647B68202283F899
:104780003D207B6800221A637B68002283F83E206C
:10479000002318461037BD4680BD00BFA08601002B
:1047A0007F841E00FF083D0083DE1B43D34D621053
:1047B00080B588B002AFF860084611461A46034635
:1047C0007B810B463B811346FB80FFF763FB7861DF
:1047D000FB6893F83D30DBB2202B40F0D9807B6939
:1047E0000093192301226D49F86800F07FFC03460D
:1047F000002B01D00223CCE0FB6893F83C30012B66
:1048000001D10223C5E0FB68012283F83C20FB684C
:104810001B681B6803F00103012B07D0FB681B68B2
:104820001A68FB681B6842F001021A60FB681B688B
:104830001A68FB681B6822F400621A60FB68212278
:1048400083F83D20FB68402283F83E20FB6800226D
:104850001A64FB683A6A5A62FB68BA8C5A85FB682C
:104860005B8D9AB2FB681A85FB684D4ADA62F8885C
:104870003A8979897B690193BB6A00930346F8689A
:1048800000F0B6FA0346002B52D0012381E07A698A
:10489000B96AF86800F000FD0346002B0DD0FB68F4
:1048A0001B6C042B07D1FB681B681A68FB681B682C
:1048B00042F400721A6001236BE0FB685B6A1A78AD
:1048C000FB681B681A61FB685B6A5A1CFB685A62CA
:1048D000FB681B8D013B9AB2FB681A85FB685B8DF8
:1048E0009BB2013B9AB2FB685A85FB681B685B6907
:1048F00003F00403042B1BD1FB681B8D002B17D086
:10490000FB685B6A1A78FB681B681A61FB685B6A64
:104910005A1CFB685A62FB681B8D013B9AB2FB680C
:104920001A85FB685B8D9BB2013B9AB2FB685A8586
:10493000FB681B8D002BAAD17A69B96AF86800F070
:10494000ECFC0346002B0DD0FB681B6C042B07D13D
:10495000FB681B681A68FB681B6842F400721A60E7
:10496000012316E0FB681B681A68FB681B6842F4A9
:1049700000721A60FB68202283F83D20FB68002249
:1049800083F83E20FB68002283F83C20002300E0EF
:10499000022318461837BD4680BD00BF0200100034
:1049A0000000FFFF80B58CB002AFF86008461146EA
:1049B0001A4603467B810B463B811346FB80FFF77B
:1049C00069FA7862FB6893F83D30DBB2202B40F047
:1049D00008827B6A0093192301227B49F86800F062
:1049E00085FB0346002B01D00223FBE1FB6893F813
:1049F0003C30012B01D10223F4E1FB68012283F852
:104A00003C20FB681B681B6803F00103012B07D0E7
:104A1000FB681B681A68FB681B6842F001021A6099
:104A2000FB681B681A68FB681B6822F400621A6046
:104A3000FB68222283F83D20FB68402283F83E2059
:104A4000FB6800221A64FB683A6B5A62FB68BA8EF4
:104A50005A85FB685B8D9AB2FB681A85FB685B4AD6
:104A6000DA62F8883A8979897B6A0193BB6B009393
:104A70000346F86800F052FA0346002B01D00123E8
:104A8000B0E1FB681B8D002B13D100233B62FB6858
:104A90001B685B693B62FB681B689B693B623B6A06
:104AA000FB681B681A68FB681B6842F400721A6096
:104AB00084E1FB681B8D012B1BD1FB681B681A6806
:104AC000FB681B6822F480621A600023FB61FB68AC
:104AD0001B685B69FB61FB681B689B69FB61FB6989
:104AE000FB681B681A68FB681B6842F400721A6056
:104AF00064E1FB681B8D022B1BD1FB681B681A68E5
:104B0000FB681B6822F480621A60FB681B681A68E5
:104B1000FB681B6842F400621A600023BB61FB68FB
:104B20001B685B69BB61FB681B689B69BB61BB69F8
:104B300044E100237B61FB681B685B697B61FB6868
:104B40001B689B697B617B6938E1FB681B8D032BCC
:104B500000F2F180FB681B8D012B23D17A6AB96BBF
:104B6000F86800F01BFC0346002B01D0012339E15B
:104B7000FB681B681A69FB685B6AD2B21A70FB6833
:104B80005B6A5A1CFB685A62FB681B8D013B9AB238
:104B9000FB681A85FB685B8D9BB2013B9AB2FB6890
:104BA0005A850BE1FB681B8D022B4ED17B6A00936B
:104BB000BB6B00220649F86800F098FA0346002B08
:104BC00008D001230EE100BF020010000000FFFF2B
:104BD00004000100FB681B681A68FB681B6842F44C
:104BE00000721A60FB681B681A69FB685B6AD2B2C4
:104BF0001A70FB685B6A5A1CFB685A62FB681B8D63
:104C0000013B9AB2FB681A85FB685B8D9BB2013B46
:104C10009AB2FB685A85FB681B681A69FB685B6A75
:104C2000D2B21A70FB685B6A5A1CFB685A62FB6856
:104C30001B8D013B9AB2FB681A85FB685B8D9BB2AA
:104C4000013B9AB2FB685A85B8E07B6A0093BB6B64
:104C500000226649F86800F049FA0346002B01D0AB
:104C60000123BFE0FB681B681A68FB681B6822F41D
:104C700080621A60FB681B681A69FB685B6AD2B2C3
:104C80001A70FB685B6A5A1CFB685A62FB681B8DD2
:104C9000013B9AB2FB681A85FB685B8D9BB2013BB6
:104CA0009AB2FB685A857B6A0093BB6B00224F491E
:104CB000F86800F01BFA0346002B01D0012391E0B5
:104CC000FB681B681A68FB681B6842F400721A6074
:104CD000FB681B681A69FB685B6AD2B21A70FB68D2
:104CE0005B6A5A1CFB685A62FB681B8D013B9AB2D7
:104CF000FB681A85FB685B8D9BB2013B9AB2FB682F
:104D00005A85FB681B681A69FB685B6AD2B21A7025
:104D1000FB685B6A5A1CFB685A62FB681B8D013B8F
:104D20009AB2FB681A85FB685B8D9BB2013B9AB215
:104D3000FB685A8542E07A6AB96BF86800F02EFB8E
:104D40000346002B01D001234CE0FB681B681A6965
:104D5000FB685B6AD2B21A70FB685B6A5A1CFB681C
:104D60005A62FB681B8D013B9AB2FB681A85FB688F
:104D70005B8D9BB2013B9AB2FB685A85FB681B684E
:104D80005B6903F00403042B18D1FB681B681A69E4
:104D9000FB685B6AD2B21A70FB685B6A5A1CFB68DC
:104DA0005A62FB681B8D013B9AB2FB681A85FB684F
:104DB0005B8D9BB2013B9AB2FB685A85FB681B8DE9
:104DC000002B7FF4C2AEFB68202283F83D20FB68F5
:104DD000002283F83E20FB68002283F83C20002359
:104DE00000E0022318462837BD4680BD04000100BC
:104DF00080B588B002AFF860084611461A460346EF
:104E00007B810B463B811346FB80FB681B681A685D
:104E1000FB681B6842F480721A607B6A00933B6AED
:104E200000224FF00111F86800F060F90346002BF2
:104E30000DD0FB681B681B6803F48073B3F5807F9B
:104E400003D1FB684FF400721A6403235FE07B898F
:104E5000DBB21A46FB681B6802F0FE021A617B6A2D
:104E60003A6A2D49F86800F098F90346002B01D002
:104E700001234CE000237B61FB681B685B697B615D
:104E8000FB681B689B697B617B697A6A396AF86891
:104E900000F002FA0346002B0DD0FB681B6C042BBC
:104EA00007D1FB681B681A68FB681B6842F4007234
:104EB0001A6001232BE0FB88012B05D13B89DAB274
:104EC000FB681B681A6121E03B891B0A9BB2DAB2BE
:104ED000FB681B681A617A6A396AF86800F0DCF9C5
:104EE0000346002B0DD0FB681B6C042B07D1FB681D
:104EF0001B681A68FB681B6842F400721A60012381
:104F000005E03B89DAB2FB681B681A61002318468A
:104F10001837BD4680BD00BF0200010080B588B0D3
:104F200002AFF860084611461A4603467B810B46DD
:104F30003B811346FB80FB681B681A68FB681B6893
:104F400042F480621A60FB681B681A68FB681B6881
:104F500042F480721A607B6A00933B6A00224FF031
:104F60000111F86800F0C2F80346002B0DD0FB6871
:104F70001B681B6803F48073B3F5807F03D1FB6863
:104F80004FF400721A640323AAE07B89DBB21A464D
:104F9000FB681B6802F0FE021A617B6A3A6A52499A
:104FA000F86800F0FAF80346002B01D0012397E0DF
:104FB00000237B61FB681B685B697B61FB681B6886
:104FC0009B697B617B697A6A396AF86800F064F9E9
:104FD0000346002B0DD0FB681B6C042B07D1FB682C
:104FE0001B681A68FB681B6842F400721A60012390
:104FF00076E0FB88012B05D13B89DAB2FB681B68A0
:105000001A6121E03B891B0A9BB2DAB2FB681B687C
:105010001A617A6A396AF86800F03EF90346002B93
:105020000DD0FB681B6C042B07D1FB681B681A684A
:10503000FB681B6842F400721A60012350E03B8950
:10504000DAB2FB681B681A617A6A396AF86800F09C
:1050500023F90346002B0DD0FB681B6C042B07D1F2
:10506000FB681B681A68FB681B6842F400721A60D0
:10507000012335E0FB681B681A68FB681B6842F473
:1050800080721A607B6A00933B6A00224FF0011124
:10509000F86800F02BF80346002B0DD0FB681B6866
:1050A0001B6803F48073B3F5807F03D1FB684FF472
:1050B00000721A64032313E07B89DBB243F001031F
:1050C000DAB2FB681B681A617B6A3A6A0649F868BB
:1050D00000F063F80346002B01D0012300E0002319
:1050E00018461837BD4680BD0200010080B584B067
:1050F00000AFF860B9603B601346FB7125E03B6888
:10510000B3F1FF3F21D0FEF7C5FE0246BB69D31ABB
:105110003A689A4202D33B68002B16D1FB68002202
:105120001A63FB68202283F83D20FB68002283F885
:105130003E20FB681B6C43F02002FB681A64FB688E
:10514000002283F83C20012323E0BB681B0CDBB268
:10515000012B0DD1FB681B685B69DA43BB68134008
:105160009BB2002B0CBF01230023DBB21A460CE0DC
:10517000FB681B689B69DA43BB6813409BB2002B3A
:105180000CBF01230023DBB21A46FB799A42B6D04A
:10519000002318461037BD4680BD80B584B000AFEF
:1051A000F860B9607A603B6051E0FB681B685B693E
:1051B00003F48063B3F5806F23D1FB681B681A6822
:1051C000FB681B6842F400721A60FB681B686FF48E
:1051D00080625A61FB6800221A63FB68202283F810
:1051E0003D20FB68002283F83E20FB681B6C43F0E7
:1051F0000402FB681A64FB68002283F83C20012348
:1052000046E07B68B3F1FF3F21D0FEF743FE024644
:105210003B68D31A7A689A4202D37B68002B16D176
:10522000FB6800221A63FB68202283F83D20FB689C
:10523000002283F83E20FB681B6C43F02002FB68D1
:105240001A64FB68002283F83C20012320E0BB683D
:105250001B0CDBB2012B0CD1FB681B685B69DA43CA
:10526000BB6813409BB2002B14BF01230023DBB2A9
:105270000BE0FB681B689B69DA43BB6813409BB279
:10528000002B14BF01230023DBB2002B8DD10023A0
:1052900018461037BD4680BD80B584B000AFF860B9
:1052A000B9607A602DE0F86800F0CEF80346002B74
:1052B00001D001232DE0BB68B3F1FF3F21D0FEF701
:1052C000E9FD02467B68D31ABA689A4202D3BB68EA
:1052D000002B16D1FB6800221A63FB68202283F89A
:1052E0003D20FB68002283F83E20FB681B6C43F0E6
:1052F0002002FB681A64FB68002283F83C2001232B
:1053000007E0FB681B685B6903F08003802BCAD150
:10531000002318461037BD4680BD80B584B000AF6D
:10532000F860B9607A602DE0F86800F08DF8034607
:10533000002B01D001232DE0BB68B3F1FF3F21D04A
:10534000FEF7A8FD02467B68D31ABA689A4202D3D8
:10535000BB68002B16D1FB6800221A63FB68202271
:1053600083F83D20FB68002283F83E20FB681B6C1D
:1053700043F02002FB681A64FB68002283F83C209B
:10538000012307E0FB681B685B6903F00403042B3F
:10539000CAD1002318461037BD4680BD80B584B001
:1053A00000AFF860B9607A6042E0FB681B685B6937
:1053B00003F01003102B19D1FB681B686FF010026B
:1053C0005A61FB6800221A63FB68202283F83D20A3
:1053D000FB68002283F83E20FB681A6CFB681A64A5
:1053E000FB68002283F83C20012329E0FEF752FDF0
:1053F00002467B68D31ABA689A4202D3BB68002B74
:1054000016D1FB6800221A63FB68202283F83D2036
:10541000FB68002283F83E20FB681B6C43F02002EF
:10542000FB681A64FB68002283F83C20012307E034
:10543000FB681B685B6903F04003402BB5D1002378
:1054400018461037BD4680BD80B483B000AF786089
:105450007B681B685B6903F48063B3F5806F1BD1C5
:105460007B681B686FF480625A617B6800221A6354
:105470007B68202283F83D207B68002283F83E2051
:105480007B681B6C43F004027B681A647B68002213
:1054900083F83C20012300E0002318460C37BD466A
:1054A0005DF8047B7047000080B483B000AF786083
:1054B0000B46FB70104B1B6823F003020E497B6800
:1054C00013430B600D4B1B690C4A43F0040313613B
:1054D000FB78012B01D130BF02E040BF20BF20BFCD
:1054E000064B1B69054A23F00403136100BF0C3708
:1054F000BD465DF8047B70470070004000ED00E0A1
:1055000080B400AF034B01221A6000BFBD465DF8B6
:10551000047B704724000E4280B400AF034B00228E
:105520001A6000BFBD465DF8047B704724000E4240
:1055300080B586B000AF78607B68002B01D1012375
:1055400067E27B681B6803F00103002B75D0884B72
:105550009B6803F00C03042B0CD0854B9B6803F075
:105560000C03082B12D1824B5B6803F48003B3F564
:10557000800F0BD17E4B1B6803F40033002B5BD0F4
:105580007B685B68002B57D1012342E27B685B6834
:10559000B3F5803F06D1764B1B68754A43F48033E0
:1055A00013601DE07B685B68B3F5A02F0CD1704BD6
:1055B0001B686F4A43F4802313606D4B1B686C4A71
:1055C00043F4803313600BE0694B1B68684A23F493
:1055D00080331360664B1B68654A23F48023136095
:1055E0007B685B68002B13D0FEF754FC386108E041
:1055F000FEF750FC02463B69D31A642B01D9032302
:1056000007E25B4B1B6803F40033002BF0D014E07F
:10561000FEF740FC386108E0FEF73CFC02463B69BF
:10562000D31A642B01D90323F3E1514B1B6803F414
:105630000033002BF0D100E000BF7B681B6803F053
:105640000203002B63D04A4B9B6803F00C03002B32
:105650000BD0474B9B6803F00C03082B1CD1444B29
:105660005B6803F48003002B16D1414B1B6803F0E9
:105670000203002B05D07B68DB68012B01D00123DE
:10568000C7E13B4B1B6823F0F8027B681B69DB001A
:10569000374913430B603AE07B68DB68002B20D06E
:1056A000344B01221A60FEF7F5FB386108E0FEF783
:1056B000F1FB02463B69D31A022B01D90323A8E16F
:1056C0002B4B1B6803F00203002BF0D0284B1B6808
:1056D00023F0F8027B681B69DB00254913430B604C
:1056E00015E0244B00221A60FEF7D4FB386108E075
:1056F000FEF7D0FB02463B69D31A022B01D90323E4
:1057000087E11B4B1B6803F00203002BF0D17B6881
:105710001B6803F00803002B36D07B685B69002B05
:1057200016D0154B01221A60FEF7B4FB386108E071
:10573000FEF7B0FB02463B69D31A022B01D90323C3
:1057400067E10B4B5B6F03F00203002BF0D01BE013
:10575000094B00221A60FEF79DFB38610EE0FEF750
:1057600099FB02463B69D31A022B07D9032350E168
:105770000038024000004742800E4742884B5B6F72
:1057800003F00203002BEAD17B681B6803F00403DB
:10579000002B00F097800023FB75814B1B6C03F0FE
:1057A0008053002B0FD10023BB607D4B1B6C7C4AC8
:1057B00043F0805313647A4B1B6C03F08053BB603F
:1057C000BB680123FB75774B1B6803F48073002BC8
:1057D00018D1744B1B68734A43F480731360FEF74F
:1057E00059FB386108E0FEF755FB02463B69D31AC6
:1057F000022B01D903230CE16A4B1B6803F480736D
:10580000002BF0D07B689B68012B06D1644B1B6F8B
:10581000634A43F0010313671CE07B689B68052B18
:105820000CD15F4B1B6F5E4A43F0040313675C4B64
:105830001B6F5B4A43F0010313670BE0584B1B6F70
:10584000574A23F001031367554B1B6F544A23F04B
:10585000040313677B689B68002B15D0FEF71AFBC7
:1058600038610AE0FEF716FB02463B69D31A41F2A3
:105870008832934201D90323CBE0494B1B6F03F0DD
:105880000203002BEED014E0FEF704FB38610AE0BF
:10589000FEF700FB02463B69D31A41F2883293427D
:1058A00001D90323B5E03E4B1B6F03F00203002B2D
:1058B000EED1FB7D012B05D1394B1B6C384A23F00F
:1058C000805313647B689B69002B00F0A180344BEC
:1058D0009B6803F00C03082B5CD07B689B69022B50
:1058E00041D1314B00221A60FEF7D4FA386108E04A
:1058F000FEF7D0FA02463B69D31A022B01D90323E3
:1059000087E0274B1B6803F00073002BF0D17B6806
:10591000DA697B681B6A1A437B685B6A9B011A43DE
:105920007B689B6A5B08013B1B041A437B68DB6A4C
:105930001B061B4913434B601B4B01221A60FEF7E9
:10594000A9FA386108E0FEF7A5FA02463B69D31AC6
:10595000022B01D903235CE0114B1B6803F0007399
:10596000002BF0D054E0104B00221A60FEF792FAA0
:10597000386108E0FEF78EFA02463B69D31A022B23
:1059800001D9032345E0064B1B6803F00073002B8D
:10599000F0D13DE07B689B69012B07D1012338E002
:1059A0000038024000700040600047421B4B5B68BB
:1059B000FB607B689B69012B28D0FB6803F48002A5
:1059C0007B68DB699A4221D1FB6803F03F027B6868
:1059D0001B6A9A421AD1FA6847F6C07313407A6874
:1059E000526A9201934211D1FB6803F440327B6802
:1059F0009B6A5B08013B1B049A4207D1FB6803F0DA
:105A000070627B68DB6A1B069A4201D0012300E0CA
:105A1000002318461837BD4680BD00BF003802403D
:105A200080B584B000AF786039607B68002B01D10D
:105A30000123CCE0684B1B6803F007033A689A42E5
:105A40000CD9654B3A68D2B21A70634B1B6803F0ED
:105A500007033A689A4201D00123B8E07B681B68CB
:105A600003F00203002B20D07B681B6803F00403C3
:105A7000002B05D0594B9B68584A43F4E053936080
:105A80007B681B6803F00803002B05D0534B9B6811
:105A9000524A43F460439360504B9B6823F0F002FA
:105AA0007B689B684D4913438B607B681B6803F0E0
:105AB0000103002B44D07B685B68012B07D1474B67
:105AC0001B6803F40033002B19D101237FE07B68AE
:105AD0005B68022B03D07B685B68032B07D13F4BCD
